:020000040000FA
:10000000700120206D0100007101000073010000EB
:1000100000000000000000000000000000000000E0
:10002000000000000000000000000000750100005A
:1000300000000000000000007701000079010000CE
:100040007B0100007B0100000D160000CD160000B2
:100050007B0100007B0100007B0100007B010000B0
:10006000000000007B0100007B0100000000000098
:10007000000000006516000099160000351600000B
:1000800081150000C51500007B0100007B01000008
:10009000E9150000A51500000000000000000000A8
:1000A0007B0100007B010000000000000000000058
:1000B0007B010000000000007B0100007B010000CC
:1000C00000F002F800F042F812A030C808382418F6
:1000D0002D18AC4201D100F039F80FCCA246AB4646
:1000E0000CA730CF2D1B083F3F197C427F1E544484
:1000F0002D090426F441641EAC4201D300F026F819
:100100000126334200D0FB1A3343984754465D46DC
:10011000DFE70000C4260000D42600000000000035
:100120007047000000000000002300240025002686
:10013000103A01D378C1FBD8520700D330C100D5A3
:100140000B6070471FB51FBD10B510BD00F02EFA33
:100150001146FFF7F7FF01F083FB00F046FA03B406
:10016000FFF7F2FF03BC00F049FA00000648004721
:10017000FEE7FEE7FEE7FEE7FEE7FEE70348044989
:10018000024A044B70470000C100000070002020AC
:100190007001202070002020002203098B4273D3BD
:1001A000030A8B4258D3030B8B423CD3030C8B4284
:1001B00021D312E003460B437FD4002243088B4235
:1001C00074D303098B425FD3030A8B4244D3030BDE
:1001D0008B4228D3030C8B420DD30902FF2212BAA3
:1001E000030C8B4202D31212090265D0030B8B421F
:1001F00019D300E0090AC30B8B4201D3CB03C01A09
:100200005241830B8B4201D38B03C01A5241430BE3
:100210008B4201D34B03C01A5241030B8B4201D3D3
:100220000B03C01A5241C30A8B4201D3CB02C01A3E
:100230005241830A8B4201D38B02C01A5241430AB6
:100240008B4201D34B02C01A5241030A8B4201D3A5
:100250000B02C01A5241CDD2C3098B4201D3CB014C
:10026000C01A524183098B4201D38B01C01A5241FB
:1002700043098B4201D34B01C01A524103098B42FF
:1002800001D30B01C01A5241C3088B4201D3CB00EA
:10029000C01A524183088B4201D38B00C01A5241CD
:1002A00043088B4201D34B00C01A5241411A00D27D
:1002B00001465241104670475DE0CA0F00D04942E6
:1002C000031000D3404253409C46002203098B4256
:1002D0002DD3030A8B4212D38901FC2212BA030ADE
:1002E0008B420CD3890192118B4208D38901921160
:1002F0008B4204D389013AD0921100E08909C309E5
:100300008B4201D3CB01C01A524183098B4201D3E6
:100310008B01C01A524143098B4201D34B01C01AD1
:10032000524103098B4201D30B01C01A5241C30849
:100330008B4201D3CB00C01A524183088B4201D3B8
:100340008B00C01A5241D9D243088B4201D34B00D3
:10035000C01A5241411A00D201465241104663462A
:100360005B1001D34042002B00D5494270476346E1
:100370005B1000D3404201B50449002802DC491C4F
:10038000084000E00846C046C04602BDFFFFFF7FB0
:100390007047704770470000F0B5FF252D04C6096F
:1003A000C209FF2704462E400137CB093E4348408F
:1003B0002A402B400746002A6BD0002B69D0AA4266
:1003C00067D0AB4265D0002800DA32460125ED0542
:1003D00029432C4309022002090AD21A4B0C7F241C
:1003E000E31A434C000A7C44E35C7D242404121984
:1003F00014145B00A218884201D3521C00E0400094
:1004000049420C465C4324115C43DB016415E3184C
:10041000040A5C43C502200D0C4644436419250AB6
:100420005D432303EC0C0D46654300030019EB18F4
:100430004C42A34201D35B18401CD4052018002B6A
:1004400007D05B00C91804D3401C002901D1400823
:1004500040003F2189048A4209D3002A08DC1106A2
:10046000090F04D0032149074018C00FC007F0BD91
:1004700001224100120689187F2252069142F6D2CB
:1004800005214907C84201D59010F0BDFF20C005E5
:10049000F0BD002F00DA32461648AA4207D2AB421E
:1004A00005D21902090E17D0F80FC007F0BDFF25BD
:1004B00063002D06AB42F9D84900A942F6D8AB42F9
:1004C00001D1A942F2D0A94201D1002101E061008D
:1004D0004908D0050843F0BD1102090EFBD0FF20EA
:1004E0000243D005F0BD0A460146104654E700001D
:1004F0008E1D00000000C07F10B501469E24000242
:10050000CA15A307002A02D01843002A04DBA21A46
:10051000002A0CDDD04010BD1206120E01D14000A1
:100520004008A21A03D4D04040420028F3DDFF2245
:1005300048001206904201D9002010BDC817C043E0
:10054000584010BD1F22030C02D10F2200041CD002
:10055000030E01D10002083A030F01D10001121F5E
:10056000830F01D18000921E002801DB4000521E43
:10057000D2055118021251181922904004D3491C77
:10058000002801D14908490008467047C10FC90732
:1005900000D04042012292071143D3E7012189078D
:1005A000D0E7000000487047000020207546FFF7A4
:1005B000F9FFAE46050069465346C008C0008546AF
:1005C00018B020B5FFF7DAFD60BCB646002600275C
:1005D000C0C5C0C5C0C5C0C5C0C5C0C5C0C5C0C5F3
:1005E000403D490849008D46704710B50446C04655
:1005F000C0462046FFF7B3FD10BD0000014918209A
:10060000ABBEFEE726000200704784B00390029163
:100610000192039800680090009801998843009027
:1006200000980299019A114008430399086004B0A8
:10063000704784B003900291019203980068009083
:10064000009801998843009000980299019A1140FE
:1006500008430399086004B07047000082B001901D
:10066000009100980199074A885002B07047C0462F
:1006700082B00190009100980199024A885002B01E
:100680007047C046D012000081B000900099012050
:10069000C202C048885001B07047C04610B584B04F
:1006A000069C0390029101920093029801990843DD
:1006B00000990843069908430349084303998900B0
:1006C0001F4A885004B010BD8100040081B0009022
:1006D000009881001A4A8120885001B07047C046B6
:1006E00081B0009000988100154A0020885001B028
:1006F0007047C04682B001900091009803490843BA
:10070000019989000E4A885002B0704780000400A9
:1007100082B00190009100988021084301998900DE
:10072000074A885002B0704782B00190009100984B
:100730008021084301998900014A885002B070471E
:100740000480424081B000900099CE4ACE48885043
:1007500001B0704782B00190009100980199024A5F
:10076000885002B07047C046B0120000F0B584B0A7
:1007700001242202344B19680392914319606E4997
:100780000D686D04FCD5457E25409E69A64374190D
:100790009C612024045D03252C40DE69AE4334199E
:1007A000DC611F4C256805262660466A37681F6293
:1007B00076685E6207262E402660C4697F252D027A
:1007C000DE69AE436406640C3419DC610768456871
:1007D00082680092C66802690192426902929A692F
:1007E000104C14403A07120B2D03ADB2AA18324335
:1007F000009D2D072D0D1543019A1543029A1543AF
:10080000007E2843084A0240101998611868039A2C
:100810001043186008688005FCD504B0F0BDC046E0
:10082000001340408D00F0FF72FF0F00064908687A
:1008300001229043086070470349086801221202B0
:10084000904308607047C04608010B40394908686A
:1008500001221203104308607047C04681B0014670
:100860006846017000780249086001B07047C046D0
:1008700008030B4080B582B0014601A801800188C1
:100880000F2002022B48FFF7D4FE02B080BDC04605
:10089000F0B5124B1D46083D2E680124A6432E607C
:1008A0000326360330401F68B743381818601868AD
:1008B000FF26B043C9B2401818602868204328605A
:1008C00018682107002A06D0084318601A480168F2
:1008D000C905FCD5F0BD88431860F0BD10010B4080
:1008E00080B582B0014601A8017001780248032258
:1008F000FFF79FFE02B080BD00010B4080B582B0C3
:10090000014601A8017001780A483022FFF791FEE4
:1009100002B080BD07498860074802689202FCD592
:10092000012212040B6813430B600168C906FCD551
:100930007047C04604010B4004020B400949086897
:10094000052210430860704781B0009005490420DB
:1009500008600098401E04490860044900200860AF
:1009600001B0704710E000E014E000E018E000E0A3
:1009700081B000900099914A0120885001B07047E1
:1009800081B0009000990120C2026F48885001B0E8
:100990007047C0460100002681B000900098812178
:1009A00049014058C0B201B070470000F0B52A4A72
:1009B00082182A4BC318087920280DD000281DD191
:1009C0000C68641E5460D56E254C25408835D5666C
:1009D0001646703688251DE00C68641E5460D46E7F
:1009E0001F4D2C401F4EA419D466146F2C40A4191F
:1009F0001467012465071C4C16460BE00C6864085C
:100A00005460D66E164C26400525ED017619D66643
:100A100016467036376827402F433760D46A134D27
:100A20002C40D462146B2C4014630024D4641465ED
:100A30008F24E443D56F2540D5671D6825401D6090
:100A400049790143BD2008401168094B0B40C0188B
:100A5000801C1060F0BDC04604180000841800001F
:100A600024493E0001040000FFFFFFCF8888FDFFFE
:100A70004000FFCF81B0009000995A4A5A488850F0
:100A800001B0704704080000030000B182B001907B
:100A900000910098019911221202885002B070470B
:100AA00010B507239B04194092008018024A84580D
:100AB0009C436118815010BD3018000010B5029C95
:100AC000A400001911431943014A815010BDC046CA
:100AD0005018000092008018014A81507047C046AB
:100AE0001018000010B50122120383180C789C60C6
:100AF0004B7883508978014A815010BD0C11000059
:100B000081B00090009911200202885801231843F7
:100B1000885001B07047000082B001900091009BA6
:100B20000199034A88581843885002B07047C0465C
:100B30002810000081B0009000990120C2020248F4
:100B4000885001B07047C0460100002681B0009077
:100B50000098812149014058C0B201B0704700009F
:100B6000B0B51122120283580124A34383500B888D
:100B70008C781C438B882343094C1C408358094DB7
:100B80001D40631983508B79CC791C43097A21432A
:100B90007E231940801842689A4351184160B0BDC5
:100BA00018670000E798FDFF81B0009000980349A6
:100BB00040580121084001B07047C04608110000AC
:100BC00081B00090009802494058C0B201B070470F
:100BD0002411000081B000900099024A0248885018
:100BE00001B0704704080000030000B180B584B074
:100BF00003900291019203980B49401802990B4A05
:100C0000FFF703FD03980A49401801993F22FFF7B7
:100C1000FCFC0399074A8818895801221140FFF704
:100C2000F4FC04B080BDC04610110000FFFF0000BE
:100C3000141100000411000010B5012212038318E2
:100C40000C789C604978815010BD80B582B00190CD
:100C50000091019811210902401800990322D20342
:100C6000FFF7D3FC02B080BD82B0019068460170EE
:100C70000078019989225201885002B07047000023
:100C800080B584B001200390C1037B4801902422E9
:100C90000023029300F08FFD0198029B0399090441
:100CA000252200F088FD039800F03AFC039800F03C
:100CB00011FC04B080BDC04680B582B00120009018
:100CC00001046D4825220023019300F074FD009873
:100CD00000F026FC009800F0FDFB019800F0FAFB04
:100CE00002B080BD80B588B007A8002305930370CB
:100CF0000120049001040291F348019025220392FF
:100D000000F059FD049800F00BFC01980299039A39
:100D1000049B00F050FD059806A90870FFE706A89F
:100D2000007807281ADCFFE7012000F0D3FB00F071
:100D3000E3FB002809D0FFE706A800788021C14026
:100D40000798084307A90870FFE7002000F0C2FBDE
:100D5000FFE70698401C06A90870E0E707A800789E
:100D600008B080BD80B584B003A9087001200104DB
:100D7000F24825220023019300F01DFD0198029006
:100D8000FFE7029807281BDCFFE703A80078029A18
:100D90008021D140084204D0FFE7012000F0C0FBD1
:100DA00003E0002000F0BCFBFFE7012000F092FB15
:100DB000002000F08FFBFFE70298401C0290E0E764
:100DC00004B080BD80B582B0012000900104F548D8
:100DD00025220023019300F0EEFC009800F0A0FB18
:100DE000009800F077FB019800F09AFB019800F062
:100DF00071FB02B080BDC04680B582B00120019079
:100E00000104E84825220023009300F0D4FC009858
:100E100000F086FB019800F05DFB019800F080FB7C
:100E200002B080BD80B588B007A806900023059366
:100E300003700120049001040291DA4801902522F8
:100E4000039200F0B8FC049800F06AFB049800F0EC
:100E500041FB01980299039A049B00F0ACFC00F05E
:100E60004BFB069A01460598117000F033FB06987B
:100E7000007808B080BDC04600000A4080B584B04C
:100E80003B2000F090F803A9009108703C2000F08E
:100E90008AF8014602A801900170007803990902BE
:100EA00040182C4908803D2000F07DF8009908701A
:100EB0003E2000F078F8014601980170007803990F
:100EC00009024018244908803F2000F06CF800997E
:100ED0000870402000F067F8014601980170007822
:100EE0000399090240181D490880432000F05BF86F
:100EF00000990870442000F056F8014601980170EE
:100F0000007803990902401815490880452000F02F
:100F10004AF800990870462000F045F8014601980B
:100F2000017000780399090240180E490880472093
:100F300000F039F800990870482000F034F80146B4
:100F40000198017000780399090240180649088049
:100F500004B080BD600020206200202064002020BA
:100F600066002020680020206A00202080B582B022
:100F70006B20022100F03FF81920272100F03BF8F8
:100F80001A200021019100F036F81B20182100F0F2
:100F900032F801991C2000F02EF83820012100F0D1
:100FA0002AF802B080BD80B584B003A90091087012
:100FB000FFF708FFD020FFF7D5FEFFF733FF0098BB
:100FC0000078FFF7CFFEFFF72DFFFFF715FFFFF7C4
:100FD000F9FED120FFF7C6FEFFF724FFFFF782FEE0
:100FE00002A901910870FFF767FEFFF705FF01985E
:100FF000007804B080BD80B584B003AA0092107060
:1010000002A801900170FFF7DDFED020FFF7AAFED5
:10101000FFF708FF00980078FFF7A4FEFFF702FF34
:1010200001980078FFF79EFEFFF7FCFEFFF7E4FE55
:1010300004B080BD80B584B002A900200870FFE72D
:1010400002A8007807281EDCFFE702A8007800212C
:10105000019100F024F9019803A90870FFE703A8A3
:1010600000787F2809DCFFE7002000F01EFAFFE788
:101070000398401C03A90870F1E7FFE70298401CA1
:1010800002A90870DCE704B080BD000080B584B020
:101090004448019001210391002300931A4600F077
:1010A0008AFB009B0198039A0221029100F083FBC6
:1010B0000198039A114600F0BBFB01980299039A2C
:1010C00000F0B6FB04B080BD00000A4080B586B0D9
:1010D00005A9087004A900200870FFE704A800789B
:1010E00007281DDCFFE705A8027804A80178802006
:1010F000C84002402B480290022100F099FB029860
:1011000001220392114600F093FB029803990022FA
:1011100000F08EFBFFE70498401C04A90870DDE78F
:10112000F448009001220192114600F081FB0098E2
:101130000199002200F07CFB06B080BD00000A404F
:1011400080B584B0F54801900221009101220292FD
:1011500000F06EFB0198029A114600F069FB0099BD
:1011600001980022039200F063FB01980299039A10
:1011700000F05EFB04B080BD80B584B0F048019003
:1011800002210291002200F053FB019801220392F8
:10119000114600F04DFB01980299039A00F048FBBC
:1011A00004B080BD00000A4080B582B000200190EC
:1011B000FFE70198C0087C2812D8FFE700200090C4
:1011C000FFE70098C0087C2805D8FFE7FFE70098F4
:1011D000401C0090F5E7FFE70198401C0190E8E70C
:1011E000FFF754FFAE2000F04BF9D52000F048F98E
:1011F000802000F045F9A82000F042F93F2000F0DF
:101200003FF9D32000F03CF9002000F039F94020EC
:1012100000F036F9A12000F033F9C82000F030F9D1
:10122000DA2000F02DF9122000F02AF9812000F0D8
:1012300027F9CF2000F024F9D92000F021F9F1207E
:1012400000F01EF9DB2000F01BF9302000F018F947
:10125000A42000F015F9A62000F012F98D2000F06E
:101260000FF9142000F00CF9AF2000F009F9FFF796
:10127000E1FE02B080BD83B0029001910120009098
:10128000FFE70198411E0191002805D0FFE7029871
:10129000009948430090F4E7009803B0704780B588
:1012A00084B0024603A8027002AA0192117000786D
:1012B000B021084300F0E4F80198007800091030EC
:1012C00000F0DEF8019800780F21084000F0D8F80F
:1012D00004B080BD80B584B003AB187002A8017063
:1012E00001A8027003984000801E0299C9000839C5
:1012F000C0B2C9B2FFF7D3FF694600200870FFE70C
:1013000068460078072812DCFFE701A80078000192
:101310001A4940186946097840181A49405C00F09B
:10132000C4F8FFE70098401C69460870E8E7039896
:101330004000401E0299C9000839C0B2C9B2FFF787
:10134000AEFF694600200870FFE76846007807286E
:1013500012DCFFE701A8007800010849401869463F
:10136000097840180649405C00F09FF8FFE70098B4
:10137000401C69460870E8E704B080BDB821000051
:1013800008FEFFFF00FEFFFF10B58AB009AC207019
:1013900008A80170079206A80370079800280AD4CD
:1013A000FFE709A8007808A909782B22FFF792FF28
:1013B000079804900AE009A8007808A909782D2266
:1013C000FFF788FF079840420490FFE705A9002037
:1013D0000870FFE705A8007806A90978884228DA8E
:1013E000FFE709A800780290089905A80078091875
:1013F000491C03910499009106A90978C04341183A
:101400000A200190FFF737FF0146009800F060FDC9
:101410000199FEF7C1FE02980A46039930231A4348
:10142000C9B2FFF757FFFFE70598401C05A90870F0
:10143000D0E70AB010BD80B584B003AB187002A825
:1014400001700192694600200870FFE70198694623
:101450000978405C002811D0FFE703A800780299C2
:101460006A461378C918019AD25CC9B2FFF732FFF5
:10147000FFE70098401C69460870E7E704B080BDAC
:1014800080B582B001A900910870FFF759FE78205D
:10149000FFF71CFE0020FFF719FE00980078FFF709
:1014A00015FEFFF769FE02B080BD80B582B001A9CC
:1014B00000910870FFF744FE7820FFF707FE4020F8
:1014C000FFF704FE00980078FFF700FEFFF754FED8
:1014D00002B080BD80B582B0014601A801700278DB
:1014E0000120C103524800F0A3F9052000F034F9AF
:1014F00002B080BD00000A4080B582B00120010426
:101500004B4800F03EF901A900910870052000F059
:1015100023F90098007802B080BDC04600000A4060
:1015200080B582B0014601A8017002780120010453
:10153000EF4800F07DF9052000F00EF902B080BD03
:1015400000000A4081B000900098012801D8FFE710
:101550000EE00098401E0749086007490020086017
:10156000FFE706480068C003002801D4FFE7F8E75A
:1015700001B0704714E000E018E000E010E000E087
:1015800080B50748FFF708FA022806D1FFE70120D7
:101590008103D748FFF7DEF800E0FFE780BDC046D3
:1015A0000040084080B5D548FFF7F6F9022806D17B
:1015B000FFE701208103CE48FFF7CCF800E0FFE70A
:1015C00080BDC04680B50748FFF7E6F9022806D17E
:1015D000FFE701208103C648FFF7BCF800E0FFE702
:1015E00080BDC0460080864080B50748FFF7D4F92B
:1015F000022806D1FFE701208103BD48FFF7AAF8C2
:1016000000E0FFE780BDC04600A0864080B50748E7
:10161000FFF7C2F9022806D1FFE701208103B44891
:10162000FFF798F800E0FFE780BDC04600000940E2
:1016300000000A4080B582B0AF48FFF787FA0B2858
:101640000CD1FFE7AC480190FFF7BAFA02460198C7
:101650002A490A70097800F067FB00E0FFE702B052
:1016600080BDC04680B582B00A48FFF76FFA0B28EC
:101670000CD1FFE707480190FFF7A2FA0246019854
:101680001E490A70097800F04FFB00E0FFE702B046
:1016900080BDC0460000104080B582B00A48FFF708
:1016A00055FA0B280CD1FFE707480190FFF788FA9D
:1016B0000246019811490A70097800F035FB00E0F4
:1016C000FFE702B080BDC0460020104080B582B068
:1016D0008848FFF73BFA0B280CD1FFE785480190BB
:1016E000FFF76EFA0246019804490A70097800F083
:1016F0001BFB00E0FFE702B080BDC0466C0020206D
:1017000081B001466846017000214056002809D486
:10171000FFE7684601781F20014001208840024908
:101720000860FFE701B0704780E200E081B0014649
:101730006846017000214056002809D4FFE768463A
:1017400001781F2001400120884002490860FFE71E
:1017500001B0704700E100E080B582B00190002048
:101760000090FFE700980199884208D2FFE75020D7
:10177000FFF7E8FEFFE70098401C0090F2E702B098
:1017800080BD84B00290019102982721C901405880
:101790000199084000900098002804D0FFE703A9B1
:1017A0000120087003E003A900200870FFE703A8E8
:1017B000007804B0704710B586B00590049103A876
:1017C000027002A80370007800280ED1FFE703A87A
:1017D0000078FEF77BFF05980499012200F028F8B5
:1017E00005980499FEF73AFF1FE002A80078022846
:1017F0000AD1FFE703A800780023009301210A041F
:101800001946FEF74BFF0FE002A8007801280AD125
:10181000FFE703A800780023009301214A0419463A
:10182000FEF73CFFFFE7FFE7FFE706B010BD000053
:1018300083B002900191684602700078002805D0BC
:10184000FFE701980299054A885005E0019802993E
:10185000952252018850FFE703B0704790120000B4
:1018600080B586B000200090059000F019FA009B2A
:10187000012003908103EC4801902322FFF79BFF96
:101880000198039BD9063B22FFF795FF4B20C1012E
:10189000184800F084FAE1204102174800F07FFA6E
:1018A00003997D20C200DF48029000F02BF80298D7
:1018B00003991922520100F0BDF9FFF775FCFFF7FB
:1018C000DFF9FFF753FB7520FFF76DFB039904AABF
:1018D00010700B4A0846FFF7AEFDFFE7FFF7CEFAA0
:1018E00004A80278022001210523FFF74DFDF5E74A
:1018F00000000A4000005040008010400000874077
:10190000D027000080B58EB001920A4601460198AA
:101910000D910CA905910A700BAA10800D980978F9
:10192000128809AB00930AAB00F040F808A90291B5
:1019300008200870072048700A9888700998069057
:1019400006A9039120200871012048710D98FFF726
:1019500091F80D98FFF714F802990D98FFF7C2F867
:1019600003990D98FFF722F805990D980A78002140
:101970000491FFF7AFF8049B05990D980978009141
:1019800019461A46FFF79AF80499059A0D981278A5
:10199000FFF786F80D98FEF7EBFF05990D9809788B
:1019A000491CFFF773F80EB080BD000010B584B07D
:1019B000069C039002A8017001A80280009303987E
:1019C0009449884236D1FFE702A80078002815D153
:1019D000FFE721200421FEF7A7FE01200103CF48E5
:1019E000FEF746FE00990920087001A8018890487A
:1019F00000F06EFA401E069908601AE002A800780E
:101A0000012815D1FFE722200521FEF78DFE0120D8
:101A10004103C248FEF72CFE00990920087001A876
:101A20000188834800F054FA401E06990860FFE7D9
:101A3000FFE7EDE003987849884234D1FFE702A838
:101A40000078002814D1FFE716200721FEF76CFE6E
:101A5000B3484021FEF70CFE00991320087001A83E
:101A60000188734800F034FA401E0699086019E0B6
:101A700002A80078012814D1FFE717200721FEF7FC
:101A800053FEA7488021FEF7F3FD0099132008704C
:101A900001A80188664800F01BFA401E06990860FC
:101AA000FFE7FFE7B3E003985C49884236D1FFE7E0
:101AB00002A80078002815D1FFE726200621FEF7AE
:101AC00033FE012041049548FEF7D2FD0099132012
:101AD000087001A80188564800F0FAF9401E0699DE
:101AE00008601AE002A80078012815D1FFE7272036
:101AF0000621FEF719FE012081048848FEF7B8FD93
:101B000000991320087001A80188494800F0E0F905
:101B1000401E06990860FFE7FFE777E00398404919
:101B2000884236D1FFE702A80078002815D1FFE7E8
:101B30003A200421FEF7F8FD012081067748FEF7E0
:101B400097FD00990920087001A80188384800F025
:101B5000BFF9401E069908601AE002A80078012823
:101B600015D1FFE73B200421FEF7DEFD0120C10671
:101B70006A48FEF77DFD00990920087001A80188D8
:101B80002B4800F0A5F9401E06990860FFE7FFE723
:101B90003BE003982349884236D1FFE702A800784A
:101BA000002815D1FFE723200521FEF7BDFD012008
:101BB00081035A48FEF75CFD00990020087001A8D7
:101BC00001881A4800F084F9401E069908601AE05E
:101BD00002A80078012815D1FFE733200521FEF780
:101BE000A3FD012001064D48FEF742FD00990020AB
:101BF000087001A801880D4800F06AF9401E069996
:101C00000860FFE7FFE7FFE7FFE7FFE7FFE7FFE722
:101C100004B010BD004008400080864000A086400F
:101C2000000009400000874000000A4080969800AC
:101C300020A1070080B588B0079006A80170059222
:101C40000598C0087D2804D3FFE77D20C0000590DB
:101C5000FFE707981049405804A9019108800598AA
:101C6000FEF79CFC0D49FEF797FB01460198029197
:101C70000088401CFEF78AFC0146029800F024FA16
:101C8000FEF73AFC03A908800798098806AA12788B
:101C9000FEF720FF08B080BD0818000000007A445D
:101CA00080B584B01D480190FEF74CFD1C480290A1
:101CB000FEF748FD0198FEF7E7FC0298FEF7E4FC0A
:101CC0000920FEF70DFD0A20FEF70AFD0020039013
:101CD000FEF7C4FD01204002FEF7CCFD0398FEF79D
:101CE000FFFDFEF7A3FDFEF7A7FD039A0320000307
:101CF0001146FEF7CDFD0B48FEF738FD1020FEF72C
:101D0000FDFDFEF7A3FD0398FEF704FE0398C04314
:101D1000FEF71AFEFEF712FE04B080BD00000A4076
:101D200000200A40A827000080B582B001906846D4
:101D30000170FFE70198FEF737FF002801D0FFE7A9
:101D4000F8E7019869460978FEF78EFF02B080BD7A
:101D500080B582B00190009100984B21C901884262
:101D60000AD1FFE701980021FEF76FFF01981A21C1
:101D70000322FEF73BFF10E00098E1214902884270
:101D80000AD1FFE701980021FEF75FFF01980221C9
:101D90000B22FEF72BFFFFE7FFE702B080BD80B507
:101DA0008CB00B900A9109A904910020039008704F
:101DB00008AA01920421118005A90291088103203B
:101DC00001070691C00405900B98FEF703FF0B98DE
:101DD000FEF7B0FE04990B9800F020F801990B98DB
:101DE000FEF72AFF02990B98FEF7BAFE0B980A99A4
:101DF000FFF7AEFF0B9801218902FEF78DFE0B98CD
:101E0000FEF77EFE039904984056FFF779FC03998C
:101E100004984056FFF78AFC0CB080BD80B586B0B0
:101E2000059004910598264988420DD1FFE7049951
:101E30000F200870142002210391FEF769FC03991A
:101E40001520FEF757FC38E005981E4988420DD151
:101E5000FFE704990D200870122002210291FEF77D
:101E600057FC02991320FEF745FC25E0059816491A
:101E700088420DD1FFE704990E2008702D20022121
:101E80000191FEF745FC01992E20FEF733FC12E08C
:101E900005980E4988420DD1FFE704990320087088
:101EA0000E2002210091FEF733FC00990F20FEF76F
:101EB00021FCFFE7FFE7FFE7FFE706B080BDC04674
:101EC00000801040000010400020104000005040F2
:101ED00043088B421AD3002203098B4279D3030AA9
:101EE0008B425ED3030B8B4242D3030C8B4227D32E
:101EF0000902FF2212BA030C8B4202D3121209020A
:101F000003D0030B8B4233D31AE0D3E0411A804154
:101F1000401C704703460B4371D443088B42F5D3F2
:101F2000002203098B4254D3030A8B4239D3030B9B
:101F30008B421DD3030C8B4202D394466EE0090AF8
:101F4000C30B8B4201D3CB03C01A5241830B8B428C
:101F500001D38B03C01A5241430B8B4201D34B0375
:101F6000C01A5241030B8B4201D30B03C01A5241DA
:101F7000C30A8B4201D3CB02C01A5241830A8B425F
:101F800001D38B02C01A5241430A8B4201D34B0248
:101F9000C01A5241030A8B4201D30B02C01A5241AC
:101FA000CDD2C3098B4201D3CB01C01A5241830960
:101FB0008B4201D38B01C01A524143098B4201D39A
:101FC0004B01C01A524103098B4201D30B01C01AC5
:101FD0005241C3088B4201D3CB00C01A524183083F
:101FE0008B4201D38B00C01A524143088B4201D36C
:101FF0004B00C01A5241411A524110007047CA0F9B
:1020000000D04942031000D34042534000229C4676
:1020100003098B422DD3030A8B4212D38901FC2280
:1020200012BA030A8B420CD3890192118B4208D356
:10203000890192118B4204D3890137D0921100E0BB
:102040008909C3098B4201D3CB01C01A52418309CC
:102050008B4201D38B01C01A524143098B4201D3F9
:102060004B01C01A524103098B4201D30B01C01A24
:102070005241C3088B4201D3CB00C01A524183089E
:102080008B4201D38B00C01A5241D9D243088B42F4
:1020900001D34B00C01A5241411A00D201465241AD
:1020A000104663465B1000D34042704763465B10A6
:1020B00000D3404201B50021004201D0C943084687
:1020C000C046C04602BD000070B5420064414B00EE
:1020D0005C41120E39D01B0E38D0FF2A3CD0FF2BAA
:1020E0003AD0D2187F3A40024902400A490A4518BC
:1020F000ED0106004E43000A090A48430104731A21
:102100004019190C4318990F04D05B0801214907A5
:102110005B1A521CD80904D3401CF50301D19D065B
:1021200007D0FF2A08D2D50506D0E407204340197E
:1021300070BD0125A843F4E7002A01DCE00770BD6B
:102140002402FF202043C00570BD1B0EFF2A03D0D0
:10215000FF2B01D0E00770BDFF2636064500B542D3
:1021600006D84D00B54203D8D218FF2A00D0E7E7C1
:10217000004870BD0000C07F818283848586878887
:10218000898B8C8D8E8F919293959697999A9C9D21
:102190009FA0A2A3A5A7A8AAACAEB0B2B3B5B7B989
:1021A000BCBEC0C2C5C7C9CCCED1D4D7D9DCDFE252
:1021B000E6E9ECF0F3F7FAFE000000000000000092
:1021C0000000000000000000000000F80000000017
:1021D000000000333000000000100C06100C060058
:1021E000000000000000000040C07840C0784000BF
:1021F000043F04043F040400007088FC0830000021
:10220000001820FF211E0000F008F000E018000078
:1022100000211C031E211E0000F008887000000031
:102220001E2123241927211010160E000000000083
:102230000000000000000000000000E018040200A0
:10224000000000071820400000020418E000000011
:102250000040201807000000404080F0804040000F
:102260000202010F01020200000000F00000000065
:102270000101011F01010100000000000000000039
:1022800080B07000000000000000000000000000AE
:102290000001010101010101000000000000000037
:1022A00000303000000000000000000080601804D2
:1022B000006018060100000000E010080810E000AF
:1022C000000F102020100F00001010F80000000078
:1022D0000020203F202000000070080808887000BF
:1022E000003028242221300000300888884830003F
:1022F0000018202020110E000000C02010F800005F
:1023000000070424243F240000F8088888080800F7
:102310000019212020110E0000E01088881800000C
:10232000000F112020110E0000380808C8380800DE
:102330000000003F0000000000708808088870005E
:10234000001C222121221C0000E010080810E000DF
:102350000000312222110F00000000C0C000000068
:10236000000000303000000000000080000000008D
:102370000000806000000000000080402010080085
:10238000000102040810200040404040404040004E
:102390000404040404040400000810204080000029
:1023A0000020100804020100007048080808F0002E
:1023B0000000003036010000C030C828E810E000FE
:1023C0000718272423140B000000C038E000000089
:1023D000203C23020227382008F8888888700000F3
:1023E000203F202020110E00C030080808083800C7
:1023F000071820202010080008F808080810E0003E
:10240000203F202020100F0008F88888E8081000DE
:10241000203F20202320180008F88888E8081000B2
:10242000203F200003000000C030080808380000EA
:1024300007182020221E020008F808000008F808EB
:10244000203F210101213F20000808F80808000072
:102450000020203F2020000000000808F8080800A5
:10246000C08080807F00000008F888C0281808001D
:10247000203F20012638200008F808000000000056
:10248000203F20202020300008F8F800F8F808004D
:10249000203F003F003F200008F830C00008F80847
:1024A000203F200007183F00E01008080810E00057
:1024B0000F10202020100F0008F808080808F0006E
:1024C000203F210101010000E01008080810E00091
:1024D0000F18242438504F0008F888888888700026
:1024E000203F2000030C30200070880808083800C6
:1024F0000038202121221C00180808F808081800BC
:102500000000203F2000000008F808000008F8083C
:10251000001F202020201F000878880000C83808ED
:10252000000007380E010000F80800F80008F80065
:10253000033C0700073C03000818688080681808FF
:1025400020302C03032C30200838C800C83808007D
:102550000000203F2000000010080808C8380800CC
:102560002038262120201800000000FE0202020070
:102570000000007F40404000000C30C00000000020
:10258000000000010638C00000020202FE00000048
:10259000004040407F0000000000040202020400EE
:1025A000000000000000000000000000000000002B
:1025B0008080808080808080000202040000000013
:1025C000000000000000000000008080808000000B
:1025D0000019242222223F2008F8008080000000F9
:1025E000003F112020110E000000008080800000BC
:1025F000000E112020201100000000808088F800CB
:10260000000E112020103F200000808080800000FC
:10261000001F222222221300008080F08888881860
:102620000020203F2020000000008080808080006B
:10263000006B94949493600008F800808080000000
:10264000203F210000203F200080989800000000DB
:102650000020203F2020000000000080989800000B
:1026600000C08080807F000008F80000808080002B
:10267000203F24022D302000000808F80000000050
:102680000020203F2020000080808080808080000B
:10269000203F20003F20003F80800080808000009D
:1026A000203F210000203F2000008080808000002B
:1026B000001F202020201F0080800080800000005C
:1026C00080FFA12020110E0000000080808080008B
:1026D000000E112020A0FF8080808000808080007C
:1026E00020203F21200001000000808080808000A9
:1026F0000033242424241900008080E0808000001E
:102700000000001F2020000080800000008080006A
:10271000001F202020103F208080800000808080CB
:1027200000010E300806010080800080008080805B
:102730000F300C030C300F00008080008080800080
:102740000020312E0E3120008080800000808080AB
:1027500080818E701806010000808080808080005B
:102760000021302C2221300000000000807C020279
:1027700000000000003F404000000000FF0000009B
:1027800000000000FF0000000002027C800000004A
:102790000040403F00000000000601010202040466
:1027A0000000000000000000010000000000000028
:1027B00000000000000000002000000010000000E9
:1027C0000001000003000000000000003400C441CC
:1027D0003132333400000000E827000000002020E0
:0827E000700100002801000057
:04000005000000C136
:00000001FF
